:020000040800F2
:10000000C8B50020ED860008A51B0008A71B000846
:10001000AB1B0008AF1B0008B31B0008000000006A
:10002000000000000000000000000000B71B0008F6
:10003000B91B000800000000BB1B0008BD1B000826
:10004000078700080787000807870008217900084C
:100050000787000807870008078700080787000848
:100060000787000807870008078700080787000838
:100070000787000807870008078700080787000828
:100080000787000807870008078700080787000818
:100090000787000807870008078700080787000808
:1000A00007870008078700080787000807870008F8
:1000B000078700080787000881AD00080787000848
:1000C00007870008078700080787000807870008D8
:1000D000078700084D860008078700080787000883
:1000E00007870008078700080787000807870008B8
:1000F00007870008078700080787000807870008A8
:100100000787000807870008078700080787000897
:1001100007870008D18500080787000807870008BF
:100120000787000807870008078700080787000877
:1001300000F002F800F06BF80AA090E8000C82448E
:100140008344AAF10107DA4501D100F060F8AFF26B
:10015000090EBAE80F0013F0010F18BFFB1A43F0A5
:10016000010318471CBE03003CBE03000A444FF0C5
:10017000000C10F8013B13F0070408BF10F8014B06
:100180001D1108BF10F8015B641E05D010F8016B4B
:10019000641E01F8016BF9D113F0080F1EBF10F8AF
:1001A000014BAD1C0C1B09D16D1E58BF01F801CBD2
:1001B000FAD505E014F8016B01F8016B6D1EF9D555
:1001C0009142D6D37047000000230024002500266A
:1001D000103A28BF78C1FBD8520728BF30C148BFAA
:1001E0000B60704764290EF0F78775290EF0F487CD
:1001F00078290FF02D8063290FF0038273290FF007
:100200000882002070471FB51FBD10B510BD0FF04C
:100210001BFA1146FFF7F7FF00F008F80FF039FA64
:1002200003B4FFF7F2FF03BC08F02AF996B00020F0
:10023000139012900C90079006904FF4A06008F075
:10024000F9FF08F0B3F84FF4165008F028F94FF40E
:10025000E13008F070F903F006F907F083FB0BF0CA
:10026000DBFB0BF020FBF948406802904820029924
:1002700088470020039012E0F5490398085C014686
:100280000290F44808F00EFF00BF4021F14808F04A
:1002900077FF0128F9D10398401C80B2039003989E
:1002A0001428E9DB0020039012E0EB490398085C76
:1002B00001460290E74808F0F5FE00BF4021E548FE
:1002C00008F05EFF0128F9D10398401C80B203902A
:1002D00003980828E9DB4FF47A7008F0A4F84FF48B
:1002E0007A7008F0A0F84FF47A7008F09CF84FF498
:1002F0007A7008F098F84FF47A7008F094F84FF498
:100300007A7008F090F84FF47A7008F08CF84FF497
:100310007A7008F088F84FF47A7008F084F84FF497
:100320007A7008F080F80020039012E0CB4903981F
:10033000085C01460290C74808F0B4FE00BF4021A7
:10034000C44808F01DFF0128F9D10398401C80B271
:10035000039003981428E9DB142008F064F84FF4A4
:100360007840BF490880BFA010210B46C822CDE9C4
:1003700000100A21962007F003F9BCA010210B46BB
:10038000C822CDE900101E21962007F0F9F81020B0
:10039000022300901E21CE20069A07F038F8B6A05E
:1003A00010210B46C822CDE900106A21032007F076
:1003B000E7F8B7A010210B46C822CDE900107E2136
:1003C000032007F0DDF8B8A010210B46C822CDE9C4
:1003D00000107421032007F0D3F8A7A010210B46CA
:1003E000C822CDE900109221032007F0C9F8A8A087
:1003F00010210B46C822CDE90010A621032007F0EA
:10040000BFF8ABA010210B46C822CDE900109C21FB
:10041000032007F0B5F898A010210B46C822CDE9BB
:100420000010BA21032007F0ABF899A010210B4669
:10043000C822CDE90010CE21032007F0A1F89EA02C
:1004400010210B46C822CDE90010C421032007F07B
:1004500097F889A010210B46C822CDE90010E221AF
:10046000032007F08DF88AA010210B46C822CDE9A1
:100470000010F621032007F083F891A010210B460D
:10048000C822CDE90010EC21032007F079F87AA00A
:1004900010210B46C822CDE900104FF485710320CE
:1004A00007F06EF87AA010210B46C822CDE90010A3
:1004B0004FF48F71032007F063F883A010210B46DF
:1004C000C822CDE900104FF48A71032007F058F8D4
:1004D00017E07FA010210B46C822CDE90010822131
:1004E0003C2007F04DF84FF4487007F09CFF7CA0CB
:1004F00010210B46C822CDE9001082213C2007F0D4
:100500003FF807F0AEF90028E3D118E078A01021F9
:100510000B46C822CDE900100A21052007F030F86B
:10052000C82007F080FF4FF6FF70A623F0220A21B3
:100530000090052006F078FDC82007F074FF07F052
:100540007EFD0028E2D10BF067FA6C4800680122BA
:100550006BA102900CF009FF18E06AA010210B4675
:10056000C822CDE900101E213C2007F009F8C82060
:1005700007F059FF4FF6FF70A623F0221E210090CE
:100580003C2006F051FDC82007F04DFF04AA05A944
:1005900060A00BF0DEFA0028DFD15FA010210B462F
:1005A000C822CDE900100A21052006F0E9FF5DA070
:1005B00010210B46C822CDE900101E21052006F0AF
:1005C000DFFF102000900498800A052302461E21B8
:1005D00002901D2006F01BFF55A010210B46C822DB
:1005E000CDE9001032213C2006F0CAFF01F07DBAAF
:1005F000002007F0E0F914901498012804D0022894
:1006000023D0032820D1C3E04DA014990EF074FD2F
:10061000079801280CD1002007904BA010210B4611
:10062000C822CDE900100A21962006F0A9FF0BE0B0
:100630000120079047A010210B46C822CDE90010E9
:100640000A21962006F09CFFBAE089E040050020D0
:10065000F4010020005000401C0200204C02002049
:10066000D004002073746F702E2E2E00696E747685
:10067000616C3A2020000000202020202020205003
:100680004D3A2020202E20543A20202E2000000019
:100690002020202020202050613A2020202E20449D
:1006A0003A20202E202500002020202331000000A9
:1006B00020202023320000002020202333000000CF
:1006C00020202023340000002020202335000000BB
:1006D000525443204552524F522120202000000006
:1006E00052544320547279696E672E2E2E000000FA
:1006F0004E4F2053442043415244210080070020A4
:10070000303A00004661746673204572726F722140
:1007100000000000300000005344204F4B212020F7
:100720002020200046533A20202020204D42000067
:10073000202020202D20202D2020202020000000FF
:1007400025640D0A0000000073746172742E2E2E51
:100750000000000073746F702E2E2E200000000029
:10076000AFF2240014990EF0C7FC0798012806D1B7
:1007700006983C2803DA0698401CC0B20690102068
:10078000022300901E21CE20069A06F040FE17E0BC
:10079000AFF2540014990EF0AFFC0798012806D16F
:1007A0000698002803DD0698401EC0B2069010206F
:1007B000022300901E21CE20069A06F028FE00BFDC
:1007C00000BFFE48008800F4004000287ED00020D2
:1007D000FB490860F948007811901198212876D1DA
:1007E000F84800784928FAD1F64840784428F6D1EC
:1007F000F44880783038C0B21090F248C078303871
:1008000088B1F04840793038EE490979303901EB48
:10081000810100EB410080B20E90EA48C079303887
:1008200080B2099016E0E748C07830386421484328
:10083000E4490979303901EB810100EB4101E148DC
:1008400040793038084480B20E90DE48C0793038A4
:1008500080B20990DB48007A303864214843D94996
:10086000497A303901EB810100EB4101D548807AAA
:100870003038084480B20C90D248007B303880B2C7
:100880000B90D048807C303864214843CD49C97CE6
:10089000303901EB810100EB4101CA48007D30385D
:1008A000084480B20D90C748807D303880B20890EF
:1008B000C448C07D303864214843C249097E30397C
:1008C00001EB810100EB4101BE4801E0DEE3D9E329
:1008D000407E3038084480B20F90BA48C07E30382D
:1008E00080B20A90109806287ED2DFE800F07D03DF
:1008F000BDFDFCFB0020029062E00298032807D0B7
:1009000002980830AF49095C02984330AE4A11544E
:100910000298032807D002981730AA49095C029868
:100920007930A94A11540298032807D0029812304E
:10093000A449095C0298AB30A34A115402980328D9
:1009400007D002980D309F49095C0298DF309E4A1B
:10095000115402981C309B49095C029800F2151052
:10096000994A1154029808309649095C029822303D
:10097000964A115402980D309249095C02982D3024
:1009800011540298C01C8F49095C029836301154EA
:10099000029812308B49095C029840301154029839
:1009A00017308849095C02984C30115402981C3069
:1009B0008449095C0298563011540298401C0290F8
:1009C0000298052899DB1020032300906A21532008
:1009D0000C9A06F01CFD1020012300906A21732060
:1009E0000B9A06F014FD00E07CE210200223009038
:1009F0006A2188200F9A06F00AFD1020012300903A
:100A00006A21A0200A9A06F002FD1020032300901C
:100A10007E2153200E9A06F0FAFC1020012300904C
:100A20007E217320099A06F0F2FC10200223009028
:100A30007E2188200D9A06F0EAFC10200123009008
:100A40007E21A020089A06F0E2FC5E48C07830388B
:100A500048B15FA010210B46C822CDE900107E21CD
:100A6000532006F08DFD0CE30020029066E0029812
:100A7000032807D0029808305249095C02984E308A
:100A8000514A11540298032807D0029817304D4953
:100A9000095C029883304C4A11540298032807D00D
:100AA000029812304749095C0298B530464A115401
:100AB0000298032807D002980D304249095C029839
:100AC000EA30414A115402981C303E49095C0298B0
:100AD00000F21F103C4A1154029808303949095C51
:100AE000029802E0FFE144E18AE02230394A1154E1
:100AF00002980D303349095C02982D301154029848
:100B0000C01C3049095C02983630115402981230EA
:100B10002C49095C02984030115402981730294939
:100B2000095C02984C30115402981C302549095C2C
:100B30000298563011540298401C029002980528E1
:100B400095DB102003230090922153200C9A06F08D
:100B50005EFC102001230090922173200B9A06F076
:100B600056FC102002230090922188200F9A06F054
:100B70004EFC1020012300909221A0200A9A06F03A
:100B800046FC102003230090A62153200E9A06F065
:100B90003EFC102001230090A6217320099A06F044
:100BA00036FC102002230090A62188200D9A06F022
:100BB0002EFC102001230090A6210DE0E40400206B
:100BC00088812242EA170020C40200200000002091
:100BD0002D00000064000020A020089A06F017FCF9
:100BE000FE48C078303850B1AFF21C0010210B46DF
:100BF000C822CDE90010A621532006F0C1FC40E236
:100C00000020029062E00298032807D00298083082
:100C1000F249095C02985930F14A115402980328AC
:100C200007D002981730ED49095C02988D30EC4AE4
:100C300011540298032807D002981230E749095C42
:100C40000298BF30E64A11540298032807D0029850
:100C50000D30E249095C0298F530E14A11540298DE
:100C60001C30DE49095C029800F22910DC4A11545C
:100C700002980830D949095C02982230D94A1154A7
:100C800002980D30D549095C02982D301154029814
:100C9000C01CD249095C02983630115402981230B7
:100CA000CE49095C02984030115402981730CB4964
:100CB000095C02984C30115402981C30C749095CF9
:100CC0000298563011540298401C02900298052850
:100CD00099DB102003230090BA2153200C9A06F0D0
:100CE00096FB102001230090BA2173200B9A06F086
:100CF0008EFB102002230090BA2188200F9A06F064
:100D000086FB102001230090BA21A0200A9A06F049
:100D10007EFB102003230090CE2153200E9A06F074
:100D200076FB102001230090CE217320099A06F053
:100D30006EFB102002230090CE2188200D9A06F031
:100D400066FB102001230090CE21A020089A06F017
:100D50005EFBA248C078303850B1AFF28C10102141
:100D60000B46C822CDE90010CE21532006F008FC26
:100D700087E10020029063E00298032807D00298E0
:100D800008309649095C02986430954A11540298DB
:100D9000032807D0029817309049095C02989730D1
:100DA0008F4A11540298032807D0029812308B49B9
:100DB000095C0298C9308A4A11540298032808D065
:100DC00002980D308549095C029800F58070844ACC
:100DD000115402981C308149095C029800F23310CA
:100DE0007F4A1154029808307C49095C02982230ED
:100DF0007D4A115402980D307849095C02982D30D3
:100E000011540298C01C7549095C0298363011547F
:100E1000029812307149095C0298403011540298CE
:100E200017306E49095C02984C30115402981C30FE
:100E30006A49095C0298563011540298401C02908D
:100E40000298052898DB102003230090E22153200C
:100E50000C9A06F0DCFA102001230090E2217320A6
:100E60000B9A06F0D4FA102002230090E221882089
:100E70000F9A06F0CCFA102001230090E221A02066
:100E80000A9A06F0C4FA102003230090F62153209A
:100E90000E9A06F0BCFA102001230090F621732070
:100EA000099A06F0B4FA102002230090F621882057
:100EB0000D9A06F0ACFA102001230090F621A02034
:100EC000089A06F0A4FA4548C078303850B1AFF21D
:100ED000003010210B46C822CDE90010F621532026
:100EE00006F04EFBCDE00020029063E0029803285C
:100EF00007D0029808303949095C02986F30384AA7
:100F000011540298032807D0029817303349095C1E
:100F10000298A130324A11540298032807D002984F
:100F200012302E49095C0298D3302D4A1154029890
:100F3000032808D002980D302849095C029800F275
:100F40000B10274A115402981C302449095C02985E
:100F500000F23D10224A1154029808301F49095CE2
:100F600002982230214A115402980D301B49095C25
:100F700002982D3011540298C01C1849095C02983F
:100F800036301154029812301449095C02984030EE
:100F90001154029817301149095C02984C301154D1
:100FA00002981C300D49095C029856301154029881
:100FB000401C02900298052898DB10200323009023
:100FC0004FF4857153200C9A06F021FA102001236A
:100FD00000904FF4857173200B9A09E0EA17002006
:100FE000C4020020C80000202C0100209001002035
:100FF00006F00DFA1020022300904FF4857188202E
:101000000F9A06F004FA1020012300904FF4857126
:10101000A0200A9A06F0FBF91020032300904FF459
:101020008F7153200E9A06F0F2F9102001230090E0
:101030004FF48F717320099A06F0E9F9102002230A
:1010400000904FF48F7188200D9A06F0E0F910207F
:10105000012300904FF48F71A020089A06F0D7F971
:10106000FE48C078303858B1AFF29C4010210B4692
:10107000C822CDE900104FF48F71532006F080FA9A
:1010800000BF00BF0020F649088002E00120F549BA
:101090000860F5484178139881427DD00798002870
:1010A0007AD10C980028F8D00698002874DDEE4814
:1010B00080884FF47A7190FBF1F03030EB4981F881
:1010C0002800E9488088642190FBF1F00A2190FB18
:1010D000F1F201FB12003030E44981F82900E248C6
:1010E00080880A2190FBF1F090FBF1F201FB1200E5
:1010F0003030DE4981F82A00DB4880880A2190FBE5
:10110000F1F201FB12003030D84981F82B00D648AB
:1011100080790A2190FBF1F03030D44981F82D001C
:10112000D14880790A2190FBF1F201FB12003030A6
:10113000CE4981F82E00CC48C0790A2190FBF1F00D
:101140003030CA4981F83000C748C0790A2190FB85
:10115000F1F201FB12003030C1B2C44880F8311006
:10116000C14800780A2190FBF1F03030BF4981F886
:101170003500BD4800780A2190FBF1F201FB120016
:101180003030BA4981F83600B74840780A2190FBE0
:10119000F1F03030B54900E03CE181F83800B24868
:1011A00040780A2190FBF1F201FB12003030AF4988
:1011B00081F83900AC4880780A2190FBF1F030309A
:1011C000AA4981F83B00A84880780A2190FBF1F2F7
:1011D00001FB12003030A54981F83C00002003904B
:1011E00012E0A3490398085C01460290A14807F069
:1011F00059FF00BF40219F4807F0C2FF0128F9D1E5
:101200000398401C80B2039003981428E9DB142053
:1012100007F009F90020039012E097490398085C51
:1012200001460290934807F03DFF00BF40219148DE
:1012300007F0A6FF0128F9D10398401C80B2039063
:1012400003983C28E9DB4FF47A7007F0ECF80020B3
:10125000039012E089490398085C01460290854892
:1012600007F020FF00BF4021824807F089FF0128D6
:10127000F9D10398401C80B2039003981428E9DB4D
:101280004FF47A7007F0CFF80020039012E077490E
:101290000398085C01460290764807F003FF00BF00
:1012A0004021744807F06CFF0128F9D10398401CD5
:1012B00080B203900398B0F5FA7FE8DB4FF4FA7040
:1012C00007F0B1F80020039012E06D490398085C24
:1012D00001460290674807F0E5FE00BF40216548DF
:1012E00007F04EFF0128F9D10398401C80B203900B
:1012F00003980328E9DB322007F095F861A00DF090
:10130000FBFE5948407813901298401CC0B21290CE
:101310000699129888427DD15EA00DF0EDFE5248EC
:1013200080884FF47A7190FBF1F030305B4908729D
:101330004D488088642190FBF1F00A2190FBF1F286
:1013400001FB1200303055494872474880880A2115
:1013500090FBF1F090FBF1F201FB120030304F49AD
:101360008872414880880A2190FBF1F201FB12004B
:1013700030304A49C8723C4880790A2190FBF1F02C
:10138000303046494873384880790A2190FBF1F2A1
:1013900001FB12003030414988733348C0790A217B
:1013A00090FBF1F030303D4908742F48C0790A2194
:1013B00090FBF1F201FB12003030384948742A48A2
:1013C00000780A2190FBF1F030303449C874264887
:1013D00000780A2190FBF1F201FB120030302F4916
:1013E0000875214840780A2190FBF1F030302B49F4
:1013F00088751D4840780A2190FBF1F201FB12002C
:1014000030302649C875184880780A2190FBF1F0E1
:10141000303000E0C3E221494876134880780A2141
:1014200090FBF1F201FB120030301C4988760E4827
:1014300080884FF47A7190FBF1F0303018490872CF
:1014400009488088642190FBF1F00A2190FBF1F2B9
:1014500001FB120030301249487223E0EA170020E5
:10146000E404002088812242CE070020C40200202C
:10147000600200200050004088020020740200201A
:10148000B804002069742069732074696D650D0AC1
:10149000000000004745540D0A0000000000002035
:1014A00064000020FE4880880A2190FBF1F090FB48
:1014B000F1F201FB12003030FA498872F848808856
:1014C0000A2190FBF1F201FB12003030F549C8729D
:1014D000F34880790A2190FBF1F03030F1494873EC
:1014E000EF4880790A2190FBF1F201FB12003030C5
:1014F000EC498873EA48C0790A2190FBF1F030305A
:10150000E8490874E648C0790A2190FBF1F201FB32
:1015100012003030E3494874E14800780A2190FB1A
:10152000F1F03030DF49C874DD4800780A2190FBC3
:10153000F1F201FB12003030DA490875D8484078E2
:101540000A2190FBF1F03030D6498875D4484078B4
:101550000A2190FBF1F201FB12003030D149C8752D
:10156000CF4880780A2190FBF1F03030CD494876A1
:10157000CB4880780A2190FBF1F201FB1200303059
:10158000C8498876C64880884FF47A7190FBF1F09C
:101590003030C5490872C2488088642190FBF1F060
:1015A0000A2190FBF1F201FB12003030BE49487273
:1015B000BB4880880A2190FBF1F090FBF1F201FB1F
:1015C00012003030B8498872B54880880A2190FBF3
:1015D000F1F201FB12003030B349C872B048807993
:1015E0000A2190FBF1F03030C1B2AF484173AC48F2
:1015F00080790A2190FBF1F201FB12003030AA49F8
:101600008873A748C0790A2190FBF1F03030A649D1
:101610000874A348C0790A2190FBF1F201FB120083
:101620003030A14948749E4800780A2190FBF1F0BF
:1016300030309D49C8749A4800780A2190FBF1F235
:1016400001FB1200303098490875954840780A210E
:1016500090FBF1F0303094498875914840780A2128
:1016600090FBF1F201FB120030308F49C8758C48B5
:1016700080780A2190FBF1F030308B494876884819
:1016800080780A2190FBF1F201FB1200303086498C
:101690008876834880884FF47A7190FBF1F030307F
:1016A000824908727E488088642190FBF1F00A210B
:1016B00090FBF1F201FB120030307C49487278480F
:1016C00080880A2190FBF1F090FBF1F201FB1200FF
:1016D000303076498872724880880A2190FBF1F296
:1016E00001FB120030307149C8726D4880790A21BF
:1016F00090FBF1F030306D494873694880790A21D8
:1017000090FBF1F201FB12003030684988736448A5
:10171000C0790A2190FBF1F03030644908746048C8
:10172000C0790A2190FBF1F201FB120030305F49D1
:1017300048745B4800780A2190FBF1F030305B4937
:10174000C874574800780A2190FBF1F201FB12009F
:10175000303056490875524840780A2190FBF1F024
:101760003030524988754E4840780A2190FBF1F29A
:1017700001FB120030304D49C875494880780A2174
:1017800090FBF1F0303049494876454880780A218D
:1017900090FBF1F201FB120030304449887640485A
:1017A00080884FF47A7190FBF1F030304049087234
:1017B0003B488088642190FBF1F00A2190FBF1F214
:1017C00001FB120030303A494872354880880A21BE
:1017D00090FBF1F090FBF1F201FB12003030344944
:1017E00088722F4880880A2190FBF1F201FB1200D9
:1017F00030302F49C8722A4880790A2190FBF1F0D5
:1018000030302B494873264880790A2190FBF1F249
:1018100001FB12003030264988732148C0790A2123
:1018200090FBF1F03030224908741D48C0790A213C
:1018300090FBF1F201FB120030301D49487418484A
:1018400000780A2190FBF1F030301949C87414482F
:1018500000780A2190FBF1F201FB120030301449AC
:1018600008750F4840780A2190FBF1F0303010499C
:1018700088750B4840780A2190FBF1F201FB1200B9
:1018800030300B49C875064880780A2190FBF1F08A
:10189000303007494876024880780A210AE0000083
:1018A000CE07002064000020C80000202C0100208A
:1018B0009001002090FBF1F201FB120030308C49C6
:1018C00088760020129013228AA18D4800680BF0C0
:1018D00077FD18B18BA00DF00FFC02E08CA00DF08D
:1018E0000BFC87480068C068014602908448006885
:1018F0000CF068F88248016888480DF02AFA8048A0
:101900000068C068014602907D4800680CF05AF8F3
:101910007B48016882480DF01CFA79480068C0686D
:1019200001460290764800680CF04CF87448016853
:101930007C480DF00EFA72480068C06801460290BB
:101940006F4800680CF03EF86D48016876480DF06D
:1019500000FA6B480068C068014602906848006859
:101960000CF030F86648016861480DF0F2F96448FF
:101970000068C06801460290614800680CF022F8D7
:101980005F48016869A00DF0E4F9C82006F04BFD3E
:101990005B4800680CF006F8C82006F044FD644877
:1019A0008178159881426FD0614880781590102019
:1019B00000905F48808804230246322102903C2038
:1019C00005F025FD10200090594880790223024639
:1019D00032210290642005F01AFD10200090544836
:1019E000C07902230246322102907C2005F00FFDCF
:1019F0004F48007A072853D2DFE800F0040F1A2579
:101A0000303B47004BA010210B46C822CDE9001007
:101A100044213C2005F0B4FD42E049A010210B46D2
:101A2000C822CDE9001044213C2005F0A9FD37E093
:101A300046A010210B46C822CDE9001044213C20CD
:101A400005F09EFD2CE044A010210B46C822CDE9F4
:101A5000001044213C2005F093FD21E041A010211D
:101A60000B46C822CDE9001044213C2005F088FD3A
:101A700016E03FA010210B46C822CDE900104421FA
:101A80003C2005F07DFD0BE02CE03CA010210B4636
:101A9000C822CDE9001044213C2005F071FD00BFB3
:101AA00000BF234880780090214840780290204869
:101AB00000780190024634A13848029B0DF028FBC3
:101AC000364810210B46C822CDE9001056213C2093
:101AD00005F056FD3248006808B9012000E00020FA
:101AE0002F4908600A2006F09EFCFEF781BD000029
:101AF00090010020303A64617461322E7478740071
:101B0000880700206661696C65640D0A00000000AA
:101B1000737563636573730D0A0000000000002095
:101B200064000020C80000202C0100200D0A0000E5
:101B3000CE07002053756E646179202020000000DC
:101B40004D6F6E646179202020000000547565732C
:101B500064617920200000005765646E65736461DC
:101B60007900000054687572736461792000000088
:101B70004672696461792020200000005361747509
:101B800072646179200000002532643A25303264A5
:101B90003A2530326420202000000000AC070020ED
:101BA000A0012142704700BFFEE700BFFEE700BF73
:101BB000FEE700BFFEE770477047704770470000C0
:101BC0000CB50020019000906C48006840F4803013
:101BD0006A49086000BF6948006800F4003000905E
:101BE0000198401C0190009818B90198B0F5A06FB9
:101BF000F1D16248006800F4003010B1012000907B
:101C000001E0002000900098012843D15C48006862
:101C100040F010005A4908600846006820F00300B0
:101C200008600846006840F00200086053484068B9
:101C3000524948600846406848600846406840F499
:101C4000806048600846406820F47C104860084680
:101C5000406840F4E81048600846006840F0807032
:101C6000086000BF4548006800F000700028F9D007
:101C70004248406820F003004049486008464068F8
:101C800040F00200486000BF3C48406800F00C0093
:101C90000828F9D10CBD10B5FFF792FF10BD10B5A3
:101CA0003648006840F00100344908600846406842
:101CB00034490840314948600846006832490840C4
:101CC0002E4908600846006820F480200860084615
:101CD000406820F4FE0048604FF41F008860FFF762
:101CE000DAFF4FF000602949086010BD10B50021EF
:101CF00000200022214B5B6803F00C0121B1042974
:101D000006D0082928D107E0214B224C236027E088
:101D10001F4B204C236023E0184B5B6803F47010CA
:101D2000164B5B6803F48032022303EB904022B928
:101D3000194B4343174C23600DE0104B5B6803F4D1
:101D4000003323B1144B4343124C236003E0104B88
:101D50004343104C236003E00D4B0E4C236000BF47
:101D600000BF064B5B68C3F303130C4CE15C094BEB
:101D70001B68CB40074C236010BD000000100240E0
:101D8000002002400000FFF8FFFFF6FE08ED00E033
:101D900000127A00BC04002000093D00C0040020AD
:101DA0004FF48071FD4A516149005161FC4908605E
:101DB0008021516111618900116170474FF4807178
:101DC000F64A116149005161F5490860802151616D
:101DD000116189001161704710B54FF08830F049EA
:101DE0000C390860091D08600020ED49086088155D
:101DF000EA4908614000486140204861E94880881C
:101E000048F68911884202D1022006F0E8FAE44837
:101E1000001F006884B24020E0490861C0000861EA
:101E20004FF03330DE490C390860091D08604FF669
:101E3000FF70DB490860204610BD10B504460B4614
:101E40002046FFF7ADFF4FF48070D4490861400091
:101E50004861D348036080204861086180000861C0
:101E600010BD10B504462046FFF79AFFFFF7B4FFF8
:101E700010BD00B5CB490889FFF792FF00BD4FF4B4
:101E80008071C64A116149005161C54908608021CD
:101E90005161116189001161704730B5014601F04F
:101EA0001F04C1F34513CA0AE50205EB43151544A7
:101EB000A8B230BD00BF0100A0F10102D0B2FAD13A
:101EC000704730B504460D46B648808849F2413126
:101ED000884205D0B348808845F21031884240D10D
:101EE000B0494889FFF75CFF4FF48070AB49086147
:101EF000400048612012AA4908608020A749486133
:101F00000861800008614010086140004861E0B24B
:101F1000A34908608020A1494861086180000861E8
:101F2000A0498889FFF73CFF4FF480709B49086106
:101F30004000486128129A4908608020974948610A
:101F40000861800008614010086140004861E8B203
:101F500093490860802091494861086180000861C8
:101F60008CE19048808846F60401884249D18D482A
:101F70008079012804D18B480088401E001B84B260
:101F800088494889FFF70CFF4FF480708349086146
:101F90004000486120128249086080207F494861E2
:101FA0000861800008614010086140004861E0B2AB
:101FB0007B49086080207949486108618000086198
:101FC00078498889FFF7ECFE4FF480707349086107
:101FD0004000486128127249086080206F494861BA
:101FE0000861800008614010086140004861E8B263
:101FF0006B49086080206949486108618000086178
:102000003CE16848808841F6631188427ED165488A
:10201000807900283FD163480088401E001B84B2AD
:1020200060494889FFF7BCFE4FF480705B49086146
:102030004000486100205A490860802057494861A3
:10204000086180000861401008614000486100207C
:102050005349086080205149486108618000086147
:10206000401008614000486120124D4908608020FE
:102070004A494861086180000861401008614000D9
:102080004861E0B2464908608020444948610861DF
:102090008000086141E043494889FFF781FE4FF421
:1020A00080703E4908614000486120123C49086048
:1020B00080203A4948610861800008614010086149
:1020C00040004861E0B236490860802033494861E9
:1020D0000861800008614010086140004861314893
:1020E0000088401E00122E49086080202B4948615C
:1020F000086180000861401008614000486129487B
:102100000078401EC0B22649086000E04CE0802004
:102110002249486108618000086122498889FFF7E7
:102120003FFE4FF480701D4908614000486128124D
:102130001B490860802019494861086180000861D6
:102140004010086140004861E8B2154908608020ED
:102150001249486108618000086140100861400030
:10216000486110484088401E00120D4908608020D8
:102170000A49486108618000086140100861400018
:10218000486108488078401EC0B205490860802038
:10219000024948610861800008616FE00010014059
:1021A0000C0C0140C0070020F748808845F2105110
:1021B000884250D1F4494889FFF7F2FD4FF480700E
:1021C000F2490861400048612012F149086080200E
:1021D000EE494861086180000861EB494989491C62
:1021E00088B2FFF7DDFD4FF48070E84908614000D8
:1021F0004861E0B2E64908608020E449486108612E
:1022000080000861E0498889FFF7CAFD4FF48070BB
:10221000DE490861400048612812DD4908608020DD
:10222000DA494861086180000861D7498989491CF9
:1022300088B2FFF7B5FD4FF48070D44908614000C3
:102240004861E8B2D24908608020D04948610861FD
:102250008000086112E0CC488079012804D1CA4886
:102260000088401E001B84B2C74948892146FFF7F9
:10227000E4FDC54988892946FFF7DFFD30BD2DE91A
:10228000F04105460E46C0480088A84203DDBE481E
:102290004088B04202DC0020BDE8F081314628468B
:1022A000FFF70FFEB848808849F24131884211D0CB
:1022B000B548808846F6040188420BD0B248808831
:1022C00045F21031884205D0AF48808841F663114D
:1022D000884203D12E20FFF763FD0DE0AA488088D5
:1022E00045F21051884204D14FF43850FFF758FDA1
:1022F00002E02220FFF754FD4FF08830A4490C394A
:102300000860091D08604FF6FF70A1490860881534
:102310009E49086140004861402048610220FFF763
:10232000C9FD9B48001F006884B24020974908619E
:102330009548808841F66311884210D14FF40070AF
:10234000924908614FF0333091490C390860091DFA
:1023500008604FF6FF708E49086020469CE74020D9
:102360008A4948610220FFF7A5FD8948001F0068DF
:1023700084B24020854908618348808849F2413110
:1023800088420BD08048808845F21031884205D0C1
:102390007D48808845F21051884213D140207B4906
:1023A00048610220FFF786FD7948001F00681FFA88
:1023B00080F8402075490861E7B24FF6FF7000EAE7
:1023C00007270DE07048808846F60401884207D14F
:1023D00040206E49486108616D48001F006884B262
:1023E0004FF40070694908614FF0333068490C3987
:1023F0000860091D08604FF6FF7065490860624873
:10240000808849F22531884216D05F48808844F29E
:102410003551884210D05C488088091F88420BD013
:102420005948808848F68911884205D056488088E6
:102430004BF20551884201D120462DE75248808851
:1024400049F2413188420BD04F48808845F2103123
:10245000884205D04C48808845F21051884207D107
:10246000E012C002B91240EA411040EAE82013E746
:102470002046FFF712FD0FE700B54348808849F278
:102480004131884211D04048808846F60401884294
:102490000BD03D48808845F21031884205D03A483B
:1024A000808841F66311884203D12920FFF778FC28
:1024B0000FE03548808845F21051884204D14FF42E
:1024C0002450FFF76DFC04E040F273110720FFF782
:1024D000B4FC00BD00B52C48808849F241318842E7
:1024E00011D02948808846F6040188420BD026483E
:1024F000808845F21031884205D02348808841F613
:102500006311884203D12820FFF74AFC0EE01E48E1
:10251000808845F21051884204D14FF42050FFF7D3
:102520003FFC03E000210720FFF787FC00BDF0B56A
:102530000546002400271448807901280BD1124851
:10254000808846F60401884205D00F48808841F60D
:102550006311884208D10C48807920BB0A488088E2
:1025600041F6631188421ED1082D1BD2DFE805F029
:102570000406080A12141618062513E0072511E0B0
:1025800004250FE005250DE0C007002000100140E4
:102590000C0C0140012505E0002503E0032501E0C6
:1025A000022500BF00BFF848808849F241318842C7
:1025B00017D0F548808846F60401884211D0F248C9
:1025C000808845F2103188420BD0EF48808845F270
:1025D0001051884205D0EC48808841F6631188424A
:1025E0007ED1082D1CD2DFE805F00406090C0F127D
:1025F000151800BF14E044F0800411E044F04004DA
:102600000EE044F0C0040BE044F0200408E044F085
:10261000600405E044F0A00402E044F0E00400BFE0
:1026200000BFD948808845F21051884202D14FF44A
:10263000585700E03627D448808845F21031884248
:102640000DD0D148808845F21051884207D0CE483D
:10265000808841F66311884201D044F00804CA48DA
:10266000808846F60401884201D144F002042146E4
:102670003846FFF7E2FBC448808841F66311884280
:102680001DD004F0200068B1BF480088BE494988C9
:10269000884214DABC4806884088BB49088008464E
:1026A00046800CE0B8480088B7494988884206DD72
:1026B000B54806884088B449088008464680B24834
:1026C000808845F2105188427ED1AF494889FFF792
:1026D00067FB4FF48070AD4908614000486100E03D
:1026E00029E10020AA4908608020A84948610861C2
:1026F00080000861A4494989491C88B2FFF750FB52
:102700004FF48070A1490861400048610020A04951
:10271000086080209D4948610861800008619A49ED
:102720004989891C88B2FFF73BFB4FF480709749B9
:1027300008614000486194480088401E0012944996
:1027400008608020914948610861800008618E49D5
:102750004989C91C88B2FFF723FB4FF480708B496D
:1027600008614000486188480078401EC0B288492E
:1027700008608020854948610861800008618249BD
:102780008889FFF70DFB4FF4807080490861400095
:10279000486100207E49086080207C4948610861CA
:1027A0008000086178498989491C88B2FFF7F8FAE6
:1027B0004FF48070754908614000486100207449F9
:1027C00008608020714900E034E0486108618000C1
:1027D00008616D498989891C88B2FFF7E1FA4FF4D5
:1027E00080706A4908614000486167484088401E1F
:1027F00000126749086080206449486108618000D0
:10280000086161498989C91C88B2FFF7C9FA4FF488
:1028100080705E490861400048615B488078401ED6
:10282000C0B25B4908608020584948610861800057
:102830000861A7E054494889FFF7B2FA4FF4807065
:1028400052490861400048610020514908608020D9
:102850004E494861086180000861401008614000ED
:10286000486100204A490860802048494861086161
:1028700080000861401008614000486142480088BB
:10288000401E0012424908608020404948610861AA
:102890008000086140100861400048613A480078B3
:1028A000401EC0B23A49086080203849486108613A
:1028B0008000086134498889FFF772FA4FF480700C
:1028C0003249086140004861002031490860802099
:1028D0002E4948610861800008614010086140008D
:1028E000486100202A490860802028494861086121
:1028F000800008614010086140004861224840881B
:10290000401E001222490860802020494861086169
:102910008000086140100861400048611A488078D2
:10292000401EC0B21A4908608020184948610861F9
:102930008000086126E0082D1CD2DFE805F00407BE
:102940000A0D0F12151844F0300413E044F010047F
:1029500010E044F020040DE000BF0BE044F0380428
:1029600008E044F0280405E044F0180402E044F0D4
:10297000080400BF00BF032744F4805421463846B2
:10298000FFF75BFAF0BD0000C00700200010014017
:102990000C0C014030B504460D4629462046FFF791
:1029A00090FAFFF766FA4FF48070FE490861400024
:1029B0004861FD480088FD4908608020F949486168
:1029C00008618000086130BD70B504460D461646AA
:1029D000F748808849F24131884205D0F448808820
:1029E00045F21031884240D1F1494889FFF7D8F9C2
:1029F0004FF48070EB490861400048612012EB49B8
:102A000008608020E7494861086180000861401043
:102A1000086140004861E0B2E44908608020E14973
:102A20004861086180000861E1498889FFF7B8F9C9
:102A30004FF48070DB490861400048612812DB498F
:102A400008608020D7494861086180000861401013
:102A5000086140004861E8B2D44908608020D1494B
:102A600048610861800008613DE1D148808845F2F5
:102A70001051884250D1CE494889FFF791F94FF45F
:102A80008070C8490861400048612012C749086049
:102A90008020C4494861086180000861C4494989AF
:102AA000491C88B2FFF77CF94FF48070BD4908617A
:102AB00040004861E0B2BD4908608020B9494861E2
:102AC000086180000861BA498889FFF769F94FF405
:102AD0008070B4490861400048612812B349086019
:102AE0008020B0494861086180000861B049898947
:102AF000491C88B2FFF754F94FF48070A949086166
:102B000040004861E8B2A94908608020A5494861B1
:102B1000086180000861E6E0A548808841F66311FD
:102B200088427DD1A248807920B9A1480088401E02
:102B3000001B84B29E494889FFF732F94FF4807038
:102B40009849086140004861201298490860802037
:102B500094494861086180000861401008614000A4
:102B60004861E0B29149086080208E49486108615F
:102B700080000861401008614000486120128B49C4
:102B80000860802087494861086180000861401022
:102B9000086140004861E0B28449086080208149B2
:102BA000486108618000086181498889FFF7F8F869
:102BB0004FF480707B4908614000486128127B49CE
:102BC00008608020774948610861800008614010F2
:102BD000086140004861E8B274490860802071498A
:102BE0004861086180000861401008614000486148
:102BF00028126E49086080206A4948610861800097
:102C000008614010086140004861E8B26749086007
:102C100080206449486108618000086163E0FFE743
:102C20006348808846F60401884249D1604880792B
:102C3000012804D15E480088401E001B84B25C4914
:102C40004889FFF7ADF84FF480705649086140009D
:102C50004861201255490860802052494861086146
:102C6000800008614010086140004861E0B24F49AF
:102C7000086080204B4948610861800008614C4928
:102C80008889FFF78DF84FF480704649086140004D
:102C9000486128124549086080204249486108611E
:102CA000800008614010086140004861E8B23F4977
:102CB000086080203B49486108618000086112E09B
:102CC0003B488079012804D139480088401E001B08
:102CD00084B2374948892146FFF7AFF834498889DB
:102CE0002946FFF7AAF84FF480702E49486140004A
:102CF00048612F4800892D49086080202949486192
:102D00000861800008614010086140004861274860
:102D100006608020486108618000086170BD2DE96F
:102D2000F0410446BE20FFF73BF84FF480701D4988
:102D300008614000486105201C490860802019494D
:102D400048610861800008614010086140004861E6
:102D500020460CF0DEFC05464FF06632154B0CF0B9
:102D6000EBFC07460CF0A8FC1049086080200D49D8
:102D700048610861800008614010086140004861B6
:102D800001200A49086080200649486108618000E6
:102D900008614010086140004861FF200349086055
:102DA000802009E000100140D00400200C0C0140FC
:102DB000C007002066660440FE4948610861800043
:102DC000086140100861400048610020FA4908602D
:102DD0008020F8494861086180000861401008615E
:102DE000400048610020F44908608020F1494861B2
:102DF000086180000861BDE8F08110B50446002C30
:102E000066D1EE498871F02008804FF4A0704880A8
:102E10000846808849F2413188420BD0E7488088D3
:102E200046F60401884205D0E448808845F2103116
:102E300088421AD12C20E14908812A2048812B2080
:102E400088810846808846F60401884205D0DB4820
:102E5000808845F21031884206D14FF4A070D749DE
:102E600008804FF4F0704880A1E0D448808845F293
:102E70001051884210D14FF43050D04908814FF49E
:102E8000285048814FF42C5088814FF4F07008800E
:102E90004FF4487048808AE0C848808841F6631142
:102EA00088420DD12C20C54908812B2048812A2039
:102EB00088814FF4F07008804FF44870488076E0C5
:102EC0002220BE49088120204881212088816EE08F
:102ED0000120BA4988714FF4A0700880F020488022
:102EE0000846808849F24131884205D0B34880883D
:102EF00045F21031884207D12C20B04908812A20A0
:102F000048812B2088813FE0AC48808846F6040148
:102F1000884207D12C20A94908812B2048812A20EA
:102F2000888131E0A548808845F21051884210D14F
:102F30004FF43050A14908814FF4285048814FF494
:102F40002C5088814FF4487008804FF4F07048800E
:102F50001AE09A48808841F6631188420DD12C20EE
:102F6000964908812A2048812B2088814FF4487097
:102F700008804FF4F070488006E022208F490881D5
:102F800021204881202088818C48808846F60401D1
:102F9000884205D08948808845F21031884206D1A0
:102FA0004FF4F070854908804FF4A07048800020ED
:102FB000FFF7BDFA10BD2DE9F04F86B004460D466F
:102FC0009046994604EB0800401E86B205EB0900C6
:102FD000401E87B27948808849F24131884215D035
:102FE0007648808845F2103188420FD07348808837
:102FF00046F60401884209D07048807901287BD1C7
:103000006E48808841F66311884275D16B494889C2
:10301000FEF7C6FE4FF480706649086140004861C3
:10302000201265490860802062494861086180007B
:1030300008614010086140004861E0B25E490860E4
:1030400080205C4948610861800008614010086187
:103050004000486130125849086080205549486155
:103060000861800008614010086140004861F0B2CA
:103070005149086080204F4948610861800008611B
:103080004E498889FEF78CFE4FF4807049490861EB
:10309000400048612812484908608020454948613D
:1030A0000861800008614010086140004861E8B292
:1030B0004149086080203F494861086180000861FB
:1030C000401008614000486138123B490860802088
:1030D000384948610861800008614010086140007B
:1030E0004861F8B23449086080203249486108617B
:1030F0008000086177E1FFE73048808841F663117E
:1031000088427DD12D480088A0EB0800001B84B2C6
:1031100005EB0900401E1FFA80F928494889FEF78F
:103120003FFE4FF48070234908614000486120123F
:103130002149086080201F494861086180000861BA
:103140004010086140004861E0B21B4908608020DF
:10315000184948610861800008614010086140001A
:10316000486104EB0800401E0012134908608020EB
:103170001049486108618000086140100861400002
:10318000486104EB0800401EC0B20B490860802073
:103190000849486108618000086108498889FEF78C
:1031A000FFFD4FF480700349086140004861281218
:1031B000014905E0001001400C0C0140C00700204F
:1031C00008608020FE494861086180000861401065
:1031D000086140004861E8B2FA4908608020F84977
:1031E0004861086180000861401008614000486142
:1031F0004FEA2920F34908608020F149486100E046
:1032000011E00861800008614010086140004861D9
:1032100009F0FF00EB4908608020E9494861086136
:1032200080000861DFE0E848808845F2105188425C
:103230007ED1E5494889FEF7B3FD4FF48070E0493F
:103240000861400048612012DE4908608020DC49A6
:103250004861086180000861DB494989491C88B2DE
:10326000FEF79EFD4FF48070D5490861400048612B
:10327000E0B2D44908608020D149486108618000EB
:103280000861D1494989891C88B2FEF789FD4FF44C
:103290008070CB490861400048613012C94908601C
:1032A0008020C7494861086180000861C649498992
:1032B000C91C88B2FEF774FD4FF48070C0490861E4
:1032C00040004861F0B2BF4908608020BC494861B5
:1032D000086180000861BC498889FEF761FD4FF4F0
:1032E0008070B7490861400048612812B5490860FC
:1032F0008020B3494861086180000861B24989892A
:10330000491C88B2FEF74CFD4FF48070AC4908614F
:1033100040004861E8B2AB4908608020A849486194
:10332000086180000861A8498989891C88B200E089
:1033300026E0FEF735FD4FF48070A149086140009A
:10334000486138129F49086080209D4948610861A2
:10335000800008619C498989C91C88B2FEF720FD5C
:103360004FF480709649086140004861F8B2954971
:10337000086080209249486108618000086132E05D
:103380009148807901280ED1AA46BB468E48008814
:10339000801B401E80B201908B480088001B401E9D
:1033A00080B2009003E0A246B346019500975020FA
:1033B00005905120049052200390532002905146D2
:1033C0000598FEF73AFD59460498FEF736FD019937
:1033D0000398FEF732FD00990298FEF72EFD29466C
:1033E0002046FEF76EFD06B0BDE8F08F70B50446CE
:1033F000002675480588408845437348808846F60E
:103400000401884216D170488079012812D1002029
:103410006D4988712A2048812B2088810021084627
:10342000FEF74FFD0120684988712B2048812A2032
:10343000888103E000210846FEF743FDFEF719FDF1
:1034400000260DE04FF480705D490861400048613E
:103450005C48046080204861086180000861761C37
:10346000AE42EFD370BD08B50121192005F07AFCFA
:103470000121564805F08BFA4FF4F860ADF80000D2
:1034800010208DF8030003208DF8020069464C4897
:1034900005F0ACF94FF4F861494805F054FA4FF6DD
:1034A000FF70ADF80000694646480C3805F09EF9FB
:1034B0004FF6FF7143480C3805F045FA322004F00E
:1034C000B2FF01210020FEF7B8FC322004F0ABFF70
:1034D0000020FEF7C6FC3C49888008468088FF280B
:1034E0000ADB084680884FF6FF71884204D03648D0
:1034F0008088B0F5134F62D1D320FEF751FCFEF760
:103500006BFCFEF769FCFEF767FC2F4988800846D4
:1035100080884FF6FF7101EA00202B498880FEF772
:103520005BFC2949898808432749888008468088A8
:1035300049F24131884242D0BF20FEF731FCFEF70C
:103540004BFCFEF749FCFEF747FCFEF745FC1E4925
:103550008880084680884FF6FF7101EA00201A49EA
:103560008880FEF739FC1849898808431649888005
:103570000846808846F6040188427CD0D420FEF7B5
:103580000FFCFEF729FCFEF727FCFEF725FC0E4991
:103590008880084680884FF6FF7101EA00200A49BA
:1035A0008880FEF719FC0849898808430649888005
:1035B0000846808845F2103188425CD008E05AE025
:1035C000001001400C0C0140C00700200002300038
:1035D0004FF45A40FEF7E4FBFEF7FEFB4FF45B406E
:1035E000FEF7DEFBFEF7F8FBFE4988800846808880
:1035F0004FF6FF7101EA0020FA4988804FF45C40E1
:10360000FEF7CEFBFEF7E8FBF64989880843F5494B
:10361000888008468088B0F5004F02D145F21050EE
:103620008880F048808845F21051884223D0A1203C
:10363000FEF7B6FBFEF7D0FBEA498880FEF7CCFB2D
:10364000E8498880084680884FF6FF7101EA00202B
:10365000E4498880FEF7C0FBE24989880843E149D4
:1036600088800846808845F26171884203D141F61E
:103670006310DC498880DB488188DBA00BF03CFDCF
:10368000D848808849F2413188427CD1CF20FEF76A
:1036900087FB0020FEF792FBC120FEF78FFB302056
:1036A000FEF78CFBED20FEF77BFB6420FEF786FB2C
:1036B0000320FEF783FB1220FEF780FB8120FEF73C
:1036C0007DFBE820FEF76CFB8520FEF777FB1020E2
:1036D000FEF774FB7A20FEF771FBCB20FEF760FB50
:1036E0003920FEF76BFB2C20FEF768FB0020FEF76D
:1036F00065FB3420FEF762FB0220FEF75FFBF7203C
:10370000FEF74EFB2020FEF759FBEA20FEF748FBB0
:103710000020FEF753FB0020FEF750FBC020FEF711
:103720003FFB1B20FEF74AFBC120FEF739FB0120BF
:10373000FEF744FBC520FEF733FB3020FEF73EFBCF
:103740003020FEF73BFBC720FEF72AFBB720FEF731
:1037500035FB3620FEF724FB4820FEF72FFB3A20EE
:10376000FEF71EFB5520FEF729FBB120FEF718FBE4
:103770000020FEF723FB1A20FEF720FBB620FEF701
:103780000FFB0A2000E099E0FEF718FBA220FEF7ED
:1037900015FBF220FEF704FB0020FEF70FFB2620AE
:1037A000FEF7FEFA0120FEF709FBE020FEF7F8FA2B
:1037B0000F20FEF703FB2A20FEF700FB2820FEF770
:1037C000FDFA0820FEF7FAFA0E20FEF7F7FA0820B5
:1037D000FEF7F4FA5420FEF7F1FAA920FEF7EEFA0C
:1037E0004320FEF7EBFA0A20FEF7E8FA0F20FEF777
:1037F000E5FA0020FEF7E2FA0020FEF7DFFA0020EB
:10380000FEF7DCFA0020FEF7D9FAE120FEF7C8FA4D
:103810000020FEF7D3FA1520FEF7D0FA1720FEF7A6
:10382000CDFA0720FEF7CAFA1120FEF7C7FA0620E4
:10383000FEF7C4FA2B20FEF7C1FA5620FEF7BEFAB7
:103840003C20FEF7BBFA0520FEF7B8FA1020FEF781
:10385000B5FA0F20FEF7B2FA3F20FEF7AFFA3F208D
:10386000FEF7ACFA0F20FEF7A9FA2B20FEF798FA24
:103870000020FEF7A3FA0020FEF7A0FA0120FEF7D1
:103880009DFA3F20FEF79AFA2A20FEF789FA0020D7
:10389000FEF794FA0020FEF791FA0020FEF78EFA68
:1038A000EF20FEF78BFA1120FEF77AFA782004F069
:1038B000BAFD2920FEF774FA03F0A5BB49488088B9
:1038C00046F6040188427CD11120FEF769FA1420E3
:1038D00004F0A9FDD020FEF763FA0720FEF76EFA88
:1038E0004220FEF76BFA1D20FEF768FAD120FEF7A2
:1038F00057FA0020FEF762FA1A20FEF75FFA092055
:10390000FEF75CFAD220FEF74BFA0120FEF756FADA
:103910002220FEF753FAC020FEF742FA1020FEF7ED
:103920004DFA3B20FEF74AFA0020FEF747FA022044
:10393000FEF744FA1120FEF741FAC520FEF730FAEF
:103940000320FEF73BFAC820FEF72AFA0020FEF714
:1039500035FA2520FEF732FA2120FEF72FFA05204E
:10396000FEF72CFA0020FEF729FA0A20FEF726FAC5
:103970006520FEF723FA2520FEF720FA7720FEF7D0
:103980001DFA5020FEF71AFA0F20FEF717FA002052
:10399000FEF714FAF820FEF703FA0120FEF70EFAFC
:1039A000FE20FEF7FDF90020FEF708FA0220FEF7E0
:1039B00005FA2020FEF7F4F93620FEF7F1F9082089
:1039C00000E037E0FEF7FAF93A20FEF7E9F9552072
:1039D000FEF7F4F92B20FEF7E3F90020FEF7EEF9ED
:1039E000002009E0C0070020204C43442049443A0D
:1039F00025780D0A00000000FEF7E0F90120FEF72F
:103A0000DDF93F20FEF7DAF92A20FEF7C9F9002098
:103A1000FEF7D4F90020FEF7D1F90120FEF7CEF928
:103A2000DF20FEF7CBF9782004F0FDFC2920FEF71B
:103A3000B7F941E7FE48808845F21031884240F0EE
:103A40007C87ED20FEF7ACF90120FEF7B7F9FE20E8
:103A5000FEF7B4F9EE20FEF7A3F9DE20FEF7AEF98B
:103A60002120FEF7ABF9F120FEF79AF90120FEF7CD
:103A7000A5F9DF20FEF794F91020FEF79FF9C42086
:103A8000FEF78EF98F20FEF799F9C620FEF788F928
:103A90000020FEF793F9E220FEF790F9E220FEF70E
:103AA0008DF9E220FEF78AF9BF20FEF779F9AA2006
:103AB000FEF784F9B020FEF773F90D20FEF77EF9CA
:103AC0000020FEF77BF90D20FEF778F90020FEF7C5
:103AD00075F91120FEF772F90020FEF76FF9192031
:103AE000FEF76CF90020FEF769F92120FEF766F970
:103AF0000020FEF763F92D20FEF760F90020FEF7A5
:103B00005DF93D20FEF75AF90020FEF757F95D20D8
:103B1000FEF754F90020FEF751F95D20FEF74EF94B
:103B20000020FEF74BF9B120FEF73AF98020FEF7AE
:103B300045F90020FEF742F98B20FEF73FF90020FF
:103B4000FEF73CF99620FEF739F90020FEF736F92A
:103B5000B220FEF725F90020FEF730F90020FEF72D
:103B60002DF90220FEF72AF90020FEF727F903209D
:103B7000FEF724F90020FEF721F9B320FEF710F933
:103B80000020FEF71BF90020FEF718F90020FEF7D1
:103B900015F90020FEF712F90020FEF70FF90020BA
:103BA000FEF70CF90020FEF709F90020FEF706F9F0
:103BB0000020FEF703F90020FEF700F90020FEF7D1
:103BC000FDF80020FEF7FAF80020FEF7F7F80020D5
:103BD000FEF7F4F80020FEF7F1F80020FEF7EEF80B
:103BE0000020FEF7EBF80020FEF7E8F80020FEF7D3
:103BF000E5F80020FEF7E2F80020FEF7DFF80020ED
:103C0000FEF7DCF80020FEF7D9F80020FEF7D6F822
:103C1000B420FEF7C5F88B20FEF7D0F80020FEF7A1
:103C2000CDF89620FEF7CAF80020FEF7C7F8A120CD
:103C3000FEF7C4F80020FEF7C1F8B520FEF7B0F893
:103C40000220FEF7BBF80020FEF7B8F80320FEF7CD
:103C5000B5F80020FEF7B2F80420FEF7AFF8002018
:103C6000FEF7ACF8B620FEF79BF80020FEF7A6F8AA
:103C70000020FEF7A3F8B720FEF792F80020FEF729
:103C80009DF80020FEF79AF83F20FEF797F80020F5
:103C9000FEF794F85E20FEF791F80020FEF78EF80C
:103CA0006420FEF78BF80020FEF788F88C20FEF7E2
:103CB00085F80020FEF782F8AC20FEF77FF80020A0
:103CC000FEF77CF8DC20FEF779F80020FEF776F8A6
:103CD0007020FEF773F80020FEF770F89020FEF7D2
:103CE0006DF80020FEF76AF8EB20FEF767F8002079
:103CF000FEF764F8DC20FEF761F80020FEF75EF8BE
:103D0000B820FEF74DF80020FEF758F80020FEF727
:103D100055F80020FEF752F80020FEF74FF800207B
:103D2000FEF74CF80020FEF749F80020FEF746F8B1
:103D30000020FEF743F8BA20FEF732F82420FEF701
:103D40003DF80020FEF73AF80020FEF737F8002093
:103D5000FEF734F8C120FEF723F82020FEF72EF8F6
:103D60000020FEF72BF85420FEF728F80020FEF77D
:103D700025F8FF20FEF722F80020FEF71FF8C220EA
:103D8000FEF70EF80A20FEF719F80020FEF716F8E5
:103D90000420FEF713F80020FEF710F8C320FDF70B
:103DA000FFFF3C20FEF70AF80020FEF707F83A2054
:103DB000FEF704F80020FEF701F83920FDF7FEFFBA
:103DC0000020FDF7FBFF3720FDF7F8FF0020FDF78F
:103DD000F5FF3C20FDF7F2FF0020FDF7EFFF362056
:103DE000FDF7ECFF0020FDF7E9FF3220FDF7E6FFCD
:103DF0000020FDF7E3FF2F20FDF7E0FF0020FDF797
:103E0000DDFF2C20FDF7DAFF0020FDF7D7FF29208A
:103E1000FDF7D4FF0020FDF7D1FF2620FDF7CEFFF0
:103E20000020FDF7CBFF2420FDF7C8FF002001E0B4
:103E3000C0070020FDF7C2FF2420FDF7BFFF0020D0
:103E4000FDF7BCFF2320FDF7B9FF0020FDF7B6FF0B
:103E50003C20FDF7B3FF0020FDF7B0FF3620FDF753
:103E6000ADFF0020FDF7AAFF3220FDF7A7FF0020DD
:103E7000FDF7A4FF2F20FDF7A1FF0020FDF79EFF17
:103E80002C20FDF79BFF0020FDF798FF2920FDF770
:103E900095FF0020FDF792FF2620FDF78FFF002001
:103EA000FDF78CFF2420FDF789FF0020FDF786FF3A
:103EB0002420FDF783FF0020FDF780FF2320FDF77E
:103EC0007DFF0020FDF77AFFC420FDF769FF622027
:103ED000FDF774FF0020FDF771FF0520FDF76EFF71
:103EE0000020FDF76BFF8420FDF768FF0020FDF741
:103EF00065FFF020FDF762FF0020FDF75FFF18204F
:103F0000FDF75CFF0020FDF759FFA420FDF756FFE9
:103F10000020FDF753FF1820FDF750FF0020FDF7AC
:103F20004DFF5020FDF74AFF0020FDF747FF0C2012
:103F3000FDF744FF0020FDF741FF1720FDF73EFF8E
:103F40000020FDF73BFF9520FDF738FF0020FDF72F
:103F500035FFF320FDF732FF0020FDF72FFFE620AD
:103F6000FDF72CFF0020FDF729FFC520FDF718FF06
:103F70003220FDF723FF0020FDF720FF4420FDF74E
:103F80001DFF0020FDF71AFF6520FDF717FF002039
:103F9000FDF714FF7620FDF711FF0020FDF70EFF5F
:103FA0008820FDF70BFF0020FDF708FFC620FDF776
:103FB000F7FE2020FDF702FF0020FDF7FFFE17208F
:103FC000FDF7FCFE0020FDF7F9FE0120FDF7F6FEEF
:103FD0000020FDF7F3FEC720FDF7E2FE0020FDF70D
:103FE000EDFE0020FDF7EAFE0020FDF7E7FE0020D1
:103FF000FDF7E4FEC820FDF7D3FE0020FDF7DEFE4E
:104000000020FDF7DBFE0020FDF7D8FE0020FDF7C5
:10401000D5FEC920FDF7C4FE0020FDF7CFFE00202D
:10402000FDF7CCFE0020FDF7C9FE0020FDF7C6FE1F
:104030000020FDF7C3FE0020FDF7C0FE0020FDF7C5
:10404000BDFE0020FDF7BAFE0020FDF7B7FE002000
:10405000FDF7B4FE0020FDF7B1FE0020FDF7AEFE37
:104060000020FDF7ABFE0020FDF7A8FE0020FDF7C5
:10407000A5FE0020FDF7A2FEE020FDF791FE162030
:10408000FDF79CFE0020FDF799FE1C20FDF796FE33
:104090000020FDF793FE2120FDF790FE0020FDF7A4
:1040A0008DFE3620FDF78AFE0020FDF787FE4620B4
:1040B000FDF784FE0020FDF781FE5220FDF77EFE15
:1040C0000020FDF77BFE6420FDF778FE0020FDF761
:1040D00075FE7A20FDF772FE0020FDF76FFE8B2043
:1040E000FDF76CFE0020FDF769FE9920FDF766FEE6
:1040F0000020FDF763FEA820FDF760FE0020FDF71D
:104100005DFEB920FDF75AFE0020FDF757FEC420E2
:10411000FDF754FE0020FDF751FECA20FDF74EFECC
:104120000020FDF74BFED220FDF748FE0020FDF7F2
:1041300045FED920FDF742FE0020FDF73FFEE020BE
:10414000FDF73CFE0020FDF739FEF320FDF736FEBB
:104150000020FDF733FEE120FDF722FE1620FDF7DB
:104160002DFE0020FDF72AFE1C20FDF727FE002073
:10417000FDF724FE2220FDF721FE0020FDF71EFEA4
:104180003620FDF71BFE0020FDF718FE4520FDF749
:1041900015FE0020FDF712FE5220FDF70FFE002055
:1041A000FDF70CFE6420FDF709FE0020FDF706FE7A
:1041B0007A20FDF703FE0020FDF700FE8B20FDF7BF
:1041C000FDFD0020FDF7FAFD9920FDF7F7FD002029
:1041D000FDF7F4FDA820FDF7F1FD0020FDF7EEFD51
:1041E000B920FDF7EBFD0020FDF7E8FDC420FDF749
:1041F000E5FD0020FDF7E2FDCA20FDF7DFFD002010
:10420000FDF7DCFDD220FDF7D9FD0020FDF7D6FD3E
:10421000D820FDF7D3FD0020FDF7D0FDE020FDF70D
:10422000CDFD0020FDF7CAFDF320FDF7C7FD0020FE
:10423000FDF7C4FDE220FDF7B3FD0520FDF7BEFD4F
:104240000020FDF7BBFD0B20FDF7B8FD0020FDF7BA
:10425000B5FD1B20FDF7B2FD0020FDF7AFFD3420BA
:10426000FDF7ACFD0020FDF7A9FD4420FDF7A6FDFC
:104270000020FDF7A3FD4F20FDF7A0FD0020FDF776
:104280009DFD6120FDF79AFD0020FDF797FD792047
:10429000FDF794FD0020FDF791FD8820FDF78EFDD0
:1042A0000020FDF78BFD9720FDF788FD0020FDF72E
:1042B00085FDA620FDF782FD0020FDF77FFDB720DC
:1042C000FDF77CFD0020FDF779FDC220FDF776FDAE
:1042D0000020FDF773FDC720FDF770FD0020FDF7FE
:1042E0006DFDD120FDF76AFD0020FDF767FDD620AA
:1042F000FDF764FD0020FDF761FDDD20FDF75EFDAB
:104300000020FDF75BFDF320FDF758FD0020FDF7D1
:1043100055FDE320FDF744FD0520FDF74FFD00208E
:10432000FDF74CFD0A20FDF749FD0020FDF746FD95
:104330001C20FDF743FD0020FDF740FD3320FDF775
:104340003DFD0020FDF73AFD4420FDF737FD00203C
:10435000FDF734FD5020FDF731FD0020FDF72EFD67
:104360006220FDF72BFD0020FDF728FD7820FDF7EA
:1043700025FD0020FDF722FD8820FDF71FFD002010
:10438000FDF71CFD9720FDF719FD0020FDF716FD38
:10439000A620FDF713FD0020FDF710FDB720FDF767
:1043A0000DFD0020FDF70AFDC220FDF707FD0020EE
:1043B000FDF704FDC720FDF701FD0020FDF7FEFC21
:1043C000D120FDF7FBFC0020FDF7F8FCD520FDF720
:1043D000F5FC0020FDF7F2FCDD20FDF7EFFC0020EE
:1043E000FDF7ECFCF320FDF7E9FC0020FDF7E6FC0F
:1043F000E420FDF7D5FC0120FDF7E0FC0020FDF7EF
:10440000DDFC0120FDF7DAFC0020FDF7D7FC0220DF
:10441000FDF7D4FC0020FDF7D1FC2A20FDF7CEFCEF
:104420000020FDF7CBFC3C20FDF7C8FC0020FDF789
:10443000C5FC4B20FDF7C2FC0020FDF7BFFC5D2052
:10444000FDF7BCFC0020FDF7B9FC7420FDF7B6FCBD
:104450000020FDF7B3FC8420FDF7B0FC0020FDF741
:10446000ADFC9320FDF7AAFC0020FDF7A7FCA220DD
:10447000FDF7A4FC0020FDF7A1FCB320FDF79EFC96
:104480000020FDF79BFCBE20FDF798FC0020FDF707
:1044900095FCC420FDF792FC0020FDF78FFCCD2099
:1044A000FDF78CFC0020FDF789FCD320FDF786FC8E
:1044B0000020FDF783FCDD20FDF780FC0020FDF7E8
:1044C0007DFCF320FDF77AFC0020FDF777FCE5206A
:1044D000FDF766FC0020FDF771FC0020FDF76EFC87
:1044E0000020FDF76BFC0020FDF768FC0220FDF7C3
:1044F00065FC0020FDF762FC2920FDF75FFC002031
:10450000FDF75CFC3C20FDF759FC0020FDF756FC54
:104510004B20FDF753FC0020FDF750FC5D20FDF71C
:104520004DFC0020FDF74AFC7420FDF747FC0020FD
:10453000FDF744FC8420FDF741FC0020FDF73EFC24
:104540009320FDF73BFC0020FDF738FCA220FDF78F
:1045500035FC0020FDF732FCB320FDF72FFC0020D6
:10456000FDF72CFCBE20FDF729FC0020FDF726FC02
:10457000C420FDF723FC0020FDF720FCCD20FDF733
:104580001DFC0020FDF71AFCD320FDF717FC0020CE
:10459000FDF714FCDC20FDF711FC0020FDF70EFCFC
:1045A000F320FDF70BFC0020FDF708FCE620FDF7EB
:1045B000F7FB1120FDF702FC0020FDF7FFFB342084
:1045C000FDF7FCFB0020FDF7F9FB5620FDF7F6FB9D
:1045D0000020FDF7F3FB7620FDF7F0FB0020FDF750
:1045E000EDFB7720FDF7EAFB0020FDF7E7FB6620F7
:1045F000FDF7E4FB0020FDF7E1FB8820FDF7DEFB83
:104600000020FDF7DBFB9920FDF7D8FB0020FDF72C
:10461000D5FBBB20FDF7D2FB0020FDF7CFFB992097
:10462000FDF7CCFB0020FDF7C9FB6620FDF7C6FBBC
:104630000020FDF7C3FB5520FDF7C0FB0020FDF770
:10464000BDFB5520FDF7BAFB0020FDF7B7FB452069
:10465000FDF7B4FB0020FDF7B1FB4320FDF7AEFBF7
:104660000020FDF7ABFB4420FDF7A8FB0020FDF781
:10467000A5FBE720FDF794FB3220FDF79FFB002010
:10468000FDF79CFB5520FDF799FB0020FDF796FBFD
:104690007620FDF793FB0020FDF790FB6620FDF7E9
:1046A0008DFB0020FDF78AFB6720FDF787FB0020CC
:1046B000FDF784FB6720FDF781FB0020FDF77EFB03
:1046C0008720FDF77BFB0020FDF778FB9920FDF7A5
:1046D00075FB0020FDF772FBBB20FDF76FFB002090
:1046E000FDF76CFB9920FDF769FB0020FDF766FBE9
:1046F0007720FDF763FB0020FDF760FB4420FDF70A
:104700005DFB0020FDF75AFB5620FDF757FB00200C
:10471000FDF754FB2320FDF751FB0020FDF74EFB76
:104720003320FDF74BFB0020FDF748FB4520FDF74C
:1047300045FB0020FDF742FBE820FDF731FB0020A0
:10474000FDF73CFB0020FDF739FB9920FDF736FB18
:104750000020FDF733FB8720FDF730FB0020FDF73D
:104760002DFB8820FDF72AFB0020FDF727FB772093
:10477000FDF724FB0020FDF721FB6620FDF71EFB63
:104780000020FDF71BFB8820FDF718FB0020FDF73C
:1047900015FBAA20FDF712FB0020FDF70FFBBB2045
:1047A000FDF70CFB0020FDF709FB9920FDF706FB48
:1047B0000020FDF703FB6620FDF700FB0020FDF75E
:1047C000FDFA5520FDF7FAFA0020FDF7F7FA55201B
:1047D000FDF7F4FA0020FDF7F1FA4420FDF7EEFAB8
:1047E0000020FDF7EBFA4420FDF7E8FA0020FDF782
:1047F000E5FA5520FDF7E2FA0020FDF7DFFAE9209F
:10480000FDF7CEFAAA20FDF7D9FA0020FDF7D6FA77
:104810000020FDF7D3FA0020FDF7D0FA0020FDF7C5
:10482000BFFAAA20FDF7CAFACF20FDF7B9FA002097
:10483000FDF7C4FA0020FDF7C1FA0020FDF7BEFA2B
:104840000020FDF7BBFA0020FDF7B8FA0020FDF7C5
:10485000B5FA0020FDF7B2FA0020FDF7AFFA00200C
:10486000FDF7ACFA0020FDF7A9FA0020FDF7A6FA43
:104870000020FDF7A3FA0020FDF7A0FA0020FDF7C5
:104880009DFA0020FDF79AFA0020FDF797FA002024
:10489000FDF794FAF020FDF783FA0020FDF78EFA79
:1048A0005020FDF78BFA0020FDF788FA0020FDF775
:1048B00085FA0020FDF782FAF320FDF771FA002057
:1048C000FDF77CFAF920FDF76BFA0620FDF776FA82
:1048D0001020FDF773FA2920FDF770FA0020FDF78C
:1048E0006DFA3A20FDF75CFA5520FDF767FA1120C2
:1048F000FDF756FA642003F096FD2920FDF750FAE3
:104900003520FDF74DFA0020FDF758FA5120FDF74C
:1049100047FAFF20FDF752FA5320FDF741FA2C2009
:10492000FDF74CFA5520FDF73BFA8220FDF746FAD9
:104930002C20FDF735FA02F066BBFE48808845F270
:10494000105188427ED155214FF47040FDF775FA21
:10495000AA214FF20100FDF770FA52214FF2020036
:10496000FDF76BFA08214FF20300FDF766FA01210B
:104970004FF20400FDF761FA0D214FF43040FDF7CE
:104980005CFA0D214BF20100FDF757FA0D214BF2B5
:104990000200FDF752FA34214FF43640FDF74DFA8C
:1049A00034214BF20160FDF748FA34214BF20260EA
:1049B000FDF743FA0D214FF43140FDF73EFA0D218A
:1049C0004BF20110FDF739FA0D214BF20210FDF701
:1049D00034FA34214FF43740FDF72FFA34214BF2EB
:1049E0000170FDF72AFA34214BF20270FDF725FA27
:1049F00000214FF43240FDF720FA00214BF2012054
:104A0000FDF71BFA00214BF20220FDF716FA2421D4
:104A10004FF43840FDF711FA24214BF60100FDF761
:104A20000CFA24214BF60200FDF707FA01214FF49E
:104A30003F40FDF702FA0F214FF43340FDF7FDF937
:104A40000F2100E0FEE34BF20130FDF7F6F90F21F4
:104A50004BF20230FDF7F1F934214FF43940FDF704
:104A6000ECF934214BF60110FDF7E7F934214BF650
:104A70000210FDF7E2F908214FF43540FDF7DDF9AA
:104A800008214BF20150FDF7D8F908214BF20250F2
:104A9000FDF7D3F903214FF44240FDF7CEF924216D
:104AA0004FF43A40FDF7C9F924214BF60120FDF7F8
:104AB000C4F924214BF60220FDF7BFF900214FF481
:104AC0003C40FDF7BAF978214BF60140FDF7B5F906
:104AD00000214BF60240FDF7B0F900214FF43D40B4
:104AE000FDF7ABF978214BF60150FDF7A6F900214F
:104AF0004BF60250FDF7A1F900214FF43E40FDF7BF
:104B00009CF964214BF60160FDF797F900214FF401
:104B10005140FDF792F933214DF20110FDF78DF967
:104B200000214DF20210FDF788F934214DF20310F7
:104B3000FDF783F900214DF20410FDF77EF93A21CB
:104B40004DF20510FDF779F900214DF20610FDF741
:104B500074F94A214DF20710FDF76FF900214DF26B
:104B60000810FDF76AF95C214DF20910FDF765F9AF
:104B700000214DF20A10FDF760F981214DF20B1072
:104B8000FDF75BF900214DF20C10FDF756F9A62157
:104B90004DF20D10FDF751F900214DF20E10FDF709
:104BA0004CF9E5214DF20F10FDF747F901214DF2C7
:104BB0001010FDF742F913214DF21110FDF73DF9E8
:104BC00001214DF21210FDF738F954214DF2131066
:104BD000FDF733F901214DF21410FDF72EF9822172
:104BE0004DF21510FDF729F901214DF21610FDF7D0
:104BF00024F9CA214DF21710FDF71FF902214DF2D9
:104C00001810FDF71AF900214DF21910FDF715F9EA
:104C100002214DF21A10FDF710F901214DF21B107F
:104C2000FDF70BF902214DF21C10FDF706F93421B6
:104C30004DF21D10FDF701F902214DF21E10FDF796
:104C4000FCF867214DF21F10FDF7F7F802214DF235
:104C50002010FDF7F2F884214DF22110FDF7EDF858
:104C600002214DF22210FDF7E8F8A4214DF22310A5
:104C7000FDF7E3F802214DF22410FDF7DEF8B7212D
:104C80004DF22510FDF7D9F802214DF22610FDF75F
:104C9000D4F8CF214DF22710FDF7CFF802214DF2C5
:104CA0002810FDF7CAF8DE214DF22910FDF7C5F8EE
:104CB00002214DF22A10FDF7C0F8F2214DF22B101F
:104CC000FDF7BBF802214DF22C10FDF7B6F8FE21DE
:104CD0004DF22D10FDF7B1F803214DF22E10FDF726
:104CE000ACF810214DF22F10FDF7A7F803214DF27B
:104CF0003010FDF7A2F833214DF23110FDF79DF889
:104D000003214DF23210FDF798F86D214DF233106A
:104D1000FDF793F800214FF45240FDF78EF8332150
:104D20004DF20120FDF789F800214DF20220FDF738
:104D300084F801E0C007002034214DF20320FDF784
:104D40007CF800214DF20420FDF777F83A214DF26E
:104D50000520FDF772F800214DF20620FDF76DF8F1
:104D60004A214DF20720FDF768F800214DF2082096
:104D7000FDF763F85C214DF20920FDF75EF8002194
:104D80004DF20A20FDF759F881214DF20B20FDF775
:104D900054F800214DF20C20FDF74FF8A6214DF2FA
:104DA0000D20FDF74AF800214DF20E20FDF745F8E1
:104DB000E5214DF20F20FDF740F801214DF21020C2
:104DC000FDF73BF813214DF21120FDF736F80121D4
:104DD0004DF21220FDF731F854214DF21320FDF76A
:104DE0002CF801214DF21420FDF727F882214DF215
:104DF0001520FDF722F801214DF21620FDF71DF8D0
:104E0000CA214DF21720FDF718F802214DF21820A3
:104E1000FDF713F800214DF21920FDF70EF80221DD
:104E20004DF21A20FDF709F801214DF21B20FDF784
:104E300004F802214DF21C20FCF7FFFF34214DF253
:104E40001D20FCF7FAFF02214DF21E20FCF7F5FFB2
:104E500067214DF21F20FCF7F0FF02214DF22020C8
:104E6000FCF7EBFF84214DF22120FCF7E6FF022145
:104E70004DF22220FCF7E1FFA4214DF22320FCF7A4
:104E8000DCFF02214DF22420FCF7D7FFB7214DF2C1
:104E90002520FCF7D2FF02214DF22620FCF7CDFFA2
:104EA000CF214DF22720FCF7C8FF02214DF2282028
:104EB000FCF7C3FFDE214DF22920FCF7BEFF0221E3
:104EC0004DF22A20FCF7B9FFF2214DF22B20FCF71E
:104ED000B4FF02214DF22C20FCF7AFFFFE214DF272
:104EE0002D20FCF7AAFF03214DF22E20FCF7A5FF91
:104EF00010214DF22F20FCF7A0FF03214DF23020AE
:104F0000FCF79BFF33214DF23120FCF796FF032184
:104F10004DF23220FCF791FF6D214DF23320FCF76A
:104F20008CFF00214FF45340FCF787FF33214DF2F3
:104F30000130FCF782FF00214DF20230FCF77DFFCB
:104F400034214DF20330FCF778FF00214DF204309C
:104F5000FCF773FF3A214DF20530FCF76EFF00219C
:104F60004DF20630FCF769FF4A214DF20730FCF79D
:104F700064FF00214DF20830FCF75FFF5C214DF229
:104F80000930FCF75AFF00214DF20A30FCF755FFBB
:104F900081214DF20B30FCF750FF00214DF20C3017
:104FA000FCF74BFFA6214DF20D30FCF746FF002128
:104FB0004DF20E30FCF741FFE5214DF20F30FCF7CA
:104FC0003CFF01214DF21030FCF737FF13214DF269
:104FD0001130FCF732FF01214DF21230FCF72DFFAA
:104FE00054214DF21330FCF728FF01214DF214300B
:104FF000FCF723FF82214DF21530FCF71EFF012143
:105000004DF21630FCF719FFCA214DF21730FCF7AC
:1050100014FF02214DF21830FCF70FFF00214DF272
:105020001930FCF70AFF02214DF21A30FCF705FF98
:1050300001214DF21B30FCF700FF02214DF21C3024
:10504000FCF7FBFE34214DF21D30FCF7F6FE022189
:105050004DF21E30FCF7F1FE67214DF21F30FCF7D8
:10506000ECFE02214DF22030FCF7E7FE84214DF2E8
:105070002130FCF7E2FE02214DF22230FCF7DDFE8A
:10508000A4214DF22330FCF7D8FE02214DF224304A
:10509000FCF7D3FEB7214DF22530FCF7CEFE0221FE
:1050A0004DF22630FCF7C9FECF214DF22730FCF738
:1050B000C4FE02214DF22830FCF7BFFEDE214DF286
:1050C0002930FCF7BAFE02214DF22A30FCF7B5FE7A
:1050D000F2214DF22B30FCF7B0FE02214DF22C30C4
:1050E000FCF7ABFEFE214DF22D30FCF7A6FE0321AE
:1050F0004DF22E30FCF7A1FE10214DF22F30FCF7BF
:105100009CFE03214DF23030FCF797FE33214DF227
:105110003130FCF792FE03214DF23230FCF78DFE68
:105120006D214DF23330FCF788FE00214FF45440DE
:10513000FCF783FE33214DF20140FCF77EFE002197
:105140004DF20240FCF779FE34214DF20340FCF7AA
:1051500074FE00214DF20440FCF76FFE3A214DF23F
:105160000540FCF76AFE00214DF20640FCF765FEA3
:105170004A214DF20740FCF760FE00214DF2084045
:10518000FCF75BFE5C214DF20940FCF756FE002166
:105190004DF20A40FCF751FE81214DF20B40FCF725
:1051A0004CFE00214DF20C40FCF747FEA6214DF2CB
:1051B0000D40FCF742FE00214DF20E40FCF73DFE93
:1051C000E5214DF20F40FCF738FE01214DF2104071
:1051D000FCF733FE13214DF21140FCF72EFE0121A6
:1051E0004DF21240FCF729FE54214DF21340FCF71A
:1051F00024FE01214DF21440FCF71FFE82214DF2E6
:105200001540FCF71AFE01214DF21640FCF715FE81
:10521000CA214DF21740FCF710FE02214DF2184052
:10522000FCF70BFE00214DF21940FCF706FE0221AF
:105230004DF21A40FCF701FE01214DF21B40FCF734
:10524000FCFD00E004E302214DF21C40FCF7F5FDFB
:1052500034214DF21D40FCF7F0FD02214DF21E40BD
:10526000FCF7EBFD67214DF21F40FCF7E6FD022144
:105270004DF22040FCF7E1FD84214DF22140FCF786
:10528000DCFD02214DF22240FCF7D7FDA4214DF2B6
:105290002340FCF7D2FD02214DF22440FCF7CDFD66
:1052A000B7214DF22540FCF7C8FD02214DF2264002
:1052B000FCF7C3FDCF214DF22740FCF7BEFD0221D4
:1052C0004DF22840FCF7B9FDDE214DF22940FCF7F4
:1052D000B4FD02214DF22A40FCF7AFFDF2214DF260
:1052E0002B40FCF7AAFD02214DF22C40FCF7A5FD56
:1052F000FE214DF22D40FCF7A0FD03214DF22E4082
:10530000FCF79BFD10214DF22F40FCF796FD032189
:105310004DF23040FCF791FD33214DF23140FCF766
:105320008CFD03214DF23240FCF787FD6D214DF2DB
:105330003340FCF782FD00214FF45540FCF77DFD22
:1053400033214DF20150FCF778FD00214DF202505F
:10535000FCF773FD34214DF20350FCF76EFD002184
:105360004DF20450FCF769FD3A214DF20550FCF76F
:1053700064FD00214DF20650FCF75FFD4A214DF21D
:105380000750FCF75AFD00214DF20850FCF755FD7F
:105390005C214DF20950FCF750FD00214DF20A50FE
:1053A000FCF74BFD81214DF20B50FCF746FD00212F
:1053B0004DF20C50FCF741FDA6214DF20D50FCF7CB
:1053C0003CFD00214DF20E50FCF737FDE5214DF27A
:1053D0000F50FCF732FD01214DF21050FCF72DFD6E
:1053E00013214DF21150FCF728FD01214DF212500E
:1053F000FCF723FD54214DF21350FCF71EFD012153
:105400004DF21450FCF719FD82214DF21550FCF7B6
:1054100014FD01214DF21650FCF70FFDCA214DF28B
:105420001750FCF70AFD02214DF21850FCF705FD5C
:1054300000214DF21950FCF700FD02214DF21A50E7
:10544000FCF7FBFC01214DF21B50FCF7F6FC02219E
:105450004DF21C50FCF7F1FC34214DF21D50FCF7CD
:10546000ECFC02214DF21E50FCF7E7FC67214DF2E7
:105470001F50FCF7E2FC02214DF22050FCF7DDFC4E
:1054800084214DF22150FCF7D8FC02214DF222502C
:10549000FCF7D3FCA4214DF22350FCF7CEFC0221F3
:1054A0004DF22450FCF7C9FCB7214DF22550FCF712
:1054B000C4FC02214DF22650FCF7BFFCCF214DF277
:1054C0002750FCF7BAFC02214DF22850FCF7B5FC3E
:1054D000DE214DF22950FCF7B0FC02214DF22A509A
:1054E000FCF7ABFCF2214DF22B50FCF7A6FC02219D
:1054F0004DF22C50FCF7A1FCFE214DF22D50FCF793
:105500009CFC03214DF22E50FCF797FC10214DF22C
:105510002F50FCF792FC03214DF23050FCF78DFC2C
:1055200033214DF23150FCF788FC03214DF232500B
:10553000FCF783FC6D214DF23350FCF77EFC00211B
:105540004FF45640FCF779FC33214DF20160FCF733
:1055500074FC00214DF20260FCF76FFC34214DF227
:105560000360FCF76AFC00214DF20460FCF765FC67
:105570003A214DF20560FCF760FC00214DF2066017
:10558000FCF75BFC4A214DF20760FCF756FC00215A
:105590004DF20860FCF751FC5C214DF20960FCF70C
:1055A0004CFC00214DF20A60FCF747FC81214DF2D2
:1055B0000B60FCF742FC00214DF20C60FCF73DFC57
:1055C000A6214DF20D60FCF738FC00214DF20E6073
:1055D000FCF733FCE5214DF20F60FCF72EFC0121B6
:1055E0004DF21060FCF729FC13214DF21160FCF71D
:1055F00024FC01214DF21260FCF71FFC54214DF2F6
:105600001360FCF71AFC01214DF21460FCF715FC45
:1056100082214DF21560FCF710FC01214DF216605D
:10562000FCF70BFCCA214DF21760FCF706FC0221C7
:105630004DF21860FCF701FC00214DF21960FCF7F7
:10564000FCFB02214DF21A60FCF7F7FB01214DF241
:105650001B60FCF7F2FB02214DF21C60FCF7EDFB36
:1056600034214DF21D60FCF7E8FB02214DF21E6073
:10567000FCF7E3FB67214DF21F60FCF7DEFB022124
:105680004DF22060FCF7D9FB84214DF22160FCF73C
:10569000D4FB02214DF22260FCF7CFFBA4214DF296
:1056A0002360FCF7CAFB02214DF22460FCF7C5FB26
:1056B000B7214DF22560FCF7C0FB02214DF22660B8
:1056C000FCF7BBFBCF214DF22760FCF7B6FB0221B4
:1056D0004DF22860FCF7B1FBDE214DF22960FCF7AA
:1056E000ACFB02214DF22A60FCF7A7FBF2214DF240
:1056F0002B60FCF7A2FB02214DF22C60FCF79DFB16
:10570000FE214DF22D60FCF798FB03214DF22E6037
:10571000FCF793FB10214DF22F60FCF78EFB032169
:105720004DF23060FCF789FB33214DF23160FCF71C
:1057300084FB03214DF23260FCF77FFB6D214DF2BB
:105740003360FCF77AFB55214FF47040FCF775FB92
:10575000AA214FF20100FCF770FB52214FF2020028
:10576000FCF76BFB08214FF20300FCF766FB0021FE
:105770004FF20400FCF761FBCC214FF43140FCF701
:105780005CFB00214BF20110FCF757FB05214FF4A5
:105790003640FCF752FB70214FF43740FCF74DFBCD
:1057A00070214BF20170FCF748FB01214FF43840A7
:1057B000FCF743FB03214BF60100FCF73EFB032102
:1057C0004BF60200FCF739FB03214BF60300FCF714
:1057D00034FB02214FF43C40FCF72FFB00214BF639
:1057E0000140FCF72AFB00214BF60240FCF725FBA9
:1057F000D0214FF44940FCF720FB02214CF6011068
:10580000FCF71BFB50214CF60210FCF716FB502155
:105810004CF60310FCF711FB50214CF60410FCF77A
:105820000CFB00214FF45450FCF707FB55214FF4BB
:105830006850FCF702FB4FF48850FCF7B1FA78206F
:1058400002F0CDFD4FF42450FCF7AAFA01F0DBBBC7
:10585000FE48808849F2253188427DD147F6F00123
:10586000E520FCF7EAFA4FF480710120FCF7E5FA35
:105870004FF4E0610220FCF7E0FA41F2300103202E
:10588000FCF7DBFA00210420FCF7D7FA40F20221F2
:105890000820FCF7D2FA00210920FCF7CEFA0021FB
:1058A0000A20FCF7CAFA00210C20FCF7C6FA0021F6
:1058B0000D20FCF7C2FA00210F20FCF7BEFA0021F0
:1058C0001020FCF7BAFA07211120FCF7B6FA0021E4
:1058D0001220FCF7B2FA00211320FCF7AEFA0021E7
:1058E0000720FCF7AAFA41F290611020FCF7A5FA14
:1058F00040F227211120FCF7A0FA9D211220FCF78D
:105900009CFA4FF4C8511320FCF797FA252129205F
:10591000FCF793FA0D212B20FCF78FFA072130209A
:10592000FCF78BFA40F203313120FCF786FA0321B1
:105930003220FCF782FA40F206213520FCF77DFA8E
:1059400008213620FCF779FA40F206413720FCF7AF
:1059500074FA4FF4417100E058E03820FCF76DFA1A
:1059600007213920FCF769FA40F202613C20FCF77C
:1059700064FA08213D20FCF760FA00215020FCF772
:105980005CFAEF215120FCF758FA00215220FCF775
:1059900054FA40F23F115320FCF74FFA4FF42741DD
:1059A0006020FCF74AFA01216120FCF746FA002149
:1059B0006A20FCF742FA00218020FCF73EFA002121
:1059C0008120FCF73AFA00218220FCF736FA002108
:1059D0008320FCF732FA00218420FCF72EFA002104
:1059E0008520FCF72AFA10219020FCF726FA4FF4C4
:1059F000C0619220FCF721FA40F233110720FCF736
:105A00001CFA22210020FCF718FA1FE78F48808833
:105A100049F2283188427DD141F28F01EC20FCF718
:105A20000CFA41F23421EF20FCF707FA4FF48071B1
:105A30000120FCF702FA4FF4E0610220FCF7FDF9C7
:105A400041F230010320FCF7F8F900210420FCF7B3
:105A5000F4F940F202210820FCF7EFF900210920B7
:105A6000FCF7EBF900210A20FCF7E7F901210C20F3
:105A7000FCF7E3F900210D20FCF7DFF900210F20EE
:105A8000FCF7DBF900211020FCF7D7F907211120E2
:105A9000FCF7D3F900211220FCF7CFF900211320E5
:105AA000FCF7CBF901210720FCF7C7F9322002F0FF
:105AB000BAFC41F290411020FCF7BFF940F22721D7
:105AC0001120FCF7BAF9322002F0ADFC8A21122035
:105AD000FCF7B3F9322002F0A6FC4FF4D0511320AA
